:100000000C9482020C949F020C949F020C949F0209
:100010000C949F020C949F020C949F020C949F02DC
:100020000C949F020C949F020C94600B0C949B0BFD
:100030000C949F020C949F020C949F020C949F02BC
:100040000C949F020C949F020C949F020C949F02AC
:100050000C949F020C949F020C949F020C945F11CD
:100060000C949F020C949F020C949F020C949F028C
:100070000C949F020C949F020C949F020C949F027C
:100080000C949F020C949F020C949F020C949F026C
:100090000C949F020C949F020C949F020C949F025C
:1000A0000C949F020C949F020C949F02F50AF20A92
:1000B000EF0AEC0AE90AE60AE30AE00ADD0ADA0ACC
:1000C000D70AD40AD10ACE0ACB0AC80AC50AC20A7C
:1000D000BF0ABC0AB90AB60AB30AB00AAD0AAA0A2C
:1000E000A70AA40AA10A9E0A9B0A980A950A920ADC
:1000F0008F0A8C0A890A860A830A800A7D0A7A0A8C
:10010000770A740A710A6E0A6B0A680A650A620A3B
:100110005F0A5C0A590A560A530A500A4D0A4A0AEB
:10012000470A440A410A3E0A3B0A380A350A05A82A
:100130004CCDB2D44EB93836A9020C50B99186884C
:10014000083CA6AAAA2ABE000000803F00010000C9
:100150008001120002000092014300030000D5015B
:100160000401030904D9011402030904EF01160371
:1001700003090407020C0001C11201803601813617
:100180001201000202000010C0167A0400010102F0
:10019000030109024300020100C03209040000010A
:1001A00002020100052400100105240101010424BC
:1001B0000206052406000107058203100040090419
:1001C0000100020A000000070503024000000705C5
:1001D000840240000004030904140359006F0075F1
:1001E00000720020004E0061006D006500000016E6
:1001F000035500530042002000530065007200695F
:100200000061006C0000000C033100320033003448
:100210000035000000000000000000005F0000004A
:1002200007000700147F147F14242A7F2A12231347
:1002300008646236495522500005030000001C2264
:1002400041000041221C0014083E081408083E0822
:10025000080050300000080808080800606000002E
:1002600020100804023E5149453E00427F400042B2
:10027000615149462141454B311814127F102745E1
:100280004545393C4A494930017109050336494918
:100290004936064949291E00363600000056360008
:1002A00000081422410014141414140041221408EC
:1002B0000201510906324979413E7E1111117E7FBA
:1002C000494949363E414141227F4141221C7F49F3
:1002D0004949417F090909013E4149497A7F080896
:1002E000087F00417F41002040413F017F081422E8
:1002F000417F404040407F020C027F7F0408107F16
:100300003E4141413E7F090909063E4151215E7F40
:1003100009192946464949493101017F01013F40F8
:1003200040403F1F2040201F3F4038403F6314089B
:10033000146307087008076151494543007F414134
:100340000002040810200041417F00040201020461
:100350004040404040000102040020545454787F43
:10036000484444383844444420384444487F38544E
:10037000545418087E0901020C5252523E7F080460
:10038000047800447D40002040443D007F10284414
:100390000000417F40007C041804787C0804047845
:1003A00038444444387C14141408081414187C7C11
:1003B000080404084854545420043F4440203C405E
:1003C00040207C1C2040201C3C4030403C442810F5
:1003D00028440C5050503C4464544C44000836416E
:1003E0000000007F000000413608001008081008D7
:1003F00078464146786E616E00696E660000407A0C
:1004000010F35A00A0724E18090010A5D4E800009D
:10041000E87648170000E40B54020000CA9A3B003B
:100420000000E1F505000080969800000040420FB2
:10043000000000A08601000000102700000000E876
:1004400003000000006400000000000A000000003B
:10045000000100000000002C76D888DC674F0823DC
:10046000DFC1DFAE59E1B1B796E5E3E453C63AE642
:1004700051997696E8E6C28426EB898C9B62ED4022
:100480007C6FFCEFBC9C9F40F2BAA56FA5F4900571
:100490005A2AF75C936B6CF9676DC11BFCE0E40DA5
:1004A00047FEF520E6B500D0ED902E030094357799
:1004B000050080841E080000204E0A000000C80CC1
:1004C000333333330F986E12831141EF8D2114892A
:1004D0003BE65516CFFEE6DB18D1844B381BF77C84
:1004E0001D901DA4BBE424203284725E228100C9C9
:1004F000F124ECA1E53D276364696E6F7073757834
:10050000585B000011241FBECFEFDAE0DEBFCDBF85
:1005100012E0A0E0B1E0E8E3FBE402C005900D9238
:10052000A83EB107D9F716E0A8EEB2E001C01D92CF
:10053000AF3AB107E1F70E9400040C949A250C949D
:1005400000008091B204882319F01092B20408953B
:1005500081E08093B2040895EF92FF920F931F936E
:10056000DF93CF93CDB7DEB72C970FB6F894DEBFED
:100570000FBECDBF8E010D5F1F4F8DE0E82EF12C19
:10058000EC0EFD1E0E9457098823E1F30E943209F8
:100590008093B4048D3051F00E9485098091B40499
:1005A000D8018D938D01AE15BF0561F780E091E014
:1005B00063E070E00E94E70900D000D000D0EDB702
:1005C000FEB73196CE010396ADB7BEB712969C9397
:1005D0008E93119784E091E093838283CE010196FC
:1005E000958384830E94BF21EDB7FEB736960FB680
:1005F000F894FEBF0FBEEDBF89819A812C960FB68D
:10060000F894DEBF0FBECDBFCF91DF911F910F9148
:10061000FF90EF9008950E94EF1680E090E060E078
:1006200070E047E051E021E00E94E61880E090E0B1
:100630006AE070E041E151E021E00E94E61880E0CC
:1006400090E064E170E04AE151E021E00E94E618A8
:100650000E9446050E94B105059711F481E005C08E
:100660000E94BD05823019F480E00E9499050E9425
:1006700065080E940B1908950E94EF160E946508F4
:100680000E9452060E9408100E940A140E940B1930
:1006900008950E94A4070E94EF100E94E816089592
:1006A0001092B30481E08093B2040E9430110E9442
:1006B000B2080E947C1008950E94500381E080934C
:1006C000B50485E291E064E170E00E94E7090E94D0
:1006D0001A1208950E9432098093B404823711F4EB
:1006E0000E945C038091B404813721F481E08093FF
:1006F000B3040CC08C3651F48AE391E065E170E0FC
:100700000E94E7090E94AC020E942C068091B4046A
:10071000873651F480E591E06FE070E00E94E709D0
:100720000E94AC020E9431068091B404883651F4D4
:1007300080E691E06FE270E00E94E7090E94AC025F
:100740000E949C058091B204882381F48091B404B6
:10075000813611F480E003C0843621F481E00E94E8
:10076000990504C0873711F40E94F2068091B50400
:100770008823C9F08091B404803759F48091B20481
:10078000882319F01092B2040EC081E08093B20465
:100790000AC0833741F48091B204882311F00E948B
:1007A00016120E941A120E9472090E940F0B0895DD
:1007B000E1E6F0E080E8808381E080830E94160912
:1007C0000E94060D8FE30E943F1983E08093BF00D3
:1007D0008FEF8093D10082E88093C0003F9A87E03A
:1007E0008093C1001092C3008698859851982198F3
:1007F0002798509820981092B5040E9450030895AD
:100800001F93CF93DF930E94D80314E1C8ECD0E08C
:100810000E946A038091B3048823C9F00E94EF16F6
:1008200083E090E063E070E040E951E021E00E9465
:10083000E6180E940B197E9902C065E003C00E9471
:100840005C0364E0686080E00E941E19E1CF1092B2
:10085000BF001093CF007E9B09C08CED95E0FE0198
:100860003197F1F70197D9F70E945C03189B11C0EB
:100870008CED95E0FE013197F1F70197D9F7809162
:10088000B204882319F01092B20403C081E080936F
:10089000B2048091B5048823B9F08091B204882312
:1008A00019F00E940D1204C00E9411120E94490307
:1008B0000E943C037D9904C00E943606882331F0D3
:1008C00081E08093B30402C00E940B031F9BA0CF62
:1008D0008091B204882311F00E9416120E941A120D
:1008E00097CF2F923F924F925F926F927F928F920B
:1008F0009F92AF92BF92CF92DF92EF92FF920F93AF
:100900001F93DF93CF9300D000D000D0CDB7DEB7D8
:1009100024EF822E22E0922E94E9292E93E0392EA4
:1009200084E493E09E838D8384EE482E83E0582EEA
:10093000662477241C821B82A4E1B0E0BA83A983D9
:10094000F4016081718182819381D1012D913D916A
:100950004D915C910E94151D7B018C01F401608317
:10096000718382839383AD81BE816D917D918D91E1
:100970009C91F20120813181428153810E94151D99
:100980005B016C01AD81BE816D937D938D939C93D2
:100990001397C801B70120E030E040E050E00E942A
:1009A000791D87FD14C0C801B70120E030E048EA96
:1009B00052E40E94041F181654F0C601B50120E04D
:1009C00030E040E050E00E94791D882304F580E08B
:1009D00090E0A0E8BFEBF40180839183A283B3830E
:1009E000ED81FE8180839183A283B38380E090E0D8
:1009F000A0E0B0E0F10180839183A283B383F20190
:100A000080839183A283B3837A82698205C08B81BC
:100A10009C8101969C838B830894611C711CA4E0CB
:100A2000B0E08A0E9B1E2A0E3B1EED81FE8134969D
:100A3000FE83ED834A0E5B1EF4E16F16710409F02C
:100A40007FCF8B819C8190933B0480933A04A98152
:100A5000BA81B0933504A093340426960FB6F89467
:100A6000DEBF0FBECDBFCF91DF911F910F91FF90E1
:100A7000EF90DF90CF90BF90AF909F908F907F903E
:100A80006F905F904F903F902F900895EF92FF925C
:100A90000F931F938091B604823009F445C08823D8
:100AA000D9F4E090EC02F090ED020091EE0210918A
:100AB000EF02C801B70120E030E040EA50E40E94B4
:100AC000041F181674F5C801B70120E030E040E0BB
:100AD0005FE30E94141D1CC0813019F5E090EC0208
:100AE000F090ED020091EE021091EF02C801B70103
:100AF00020E030E04EE952E40E94791D88238CF416
:100B0000C801B70120E030E040E05FE30E94151D1E
:100B10006093EC027093ED028093EE029093EF02EB
:100B200003C082E08093B6041F910F91FF90EF9075
:100B300008958093B60408959C0106978934910521
:100B400078F4B901882777FD8095982F0E941B1EA5
:100B50006093EC027093ED028093EE029093EF02AB
:100B600008956091EC027091ED028091EE029091F7
:100B7000EF020E94E81DCB0108958091B60408950C
:100B8000FC01EE0FFF1FEE0FFF1FEC50FD4F6081C9
:100B90007181828193810E94E81DCB010895FC013F
:100BA000EE0FFF1FEE0FFF1FEC5BFC4F60817181AA
:100BB000828193810E94E81DCB010895DC01AA0F78
:100BC000BB1FAA0FBB1FFD01EC50FD4F20E030E022
:100BD00040E85FEB2083318342835383FD01EC5B6C
:100BE000FC4F2083318342835383FD01EC56FC4F3D
:100BF00020E030E040E050E02083318342835383A3
:100C0000AC51BC4F2D933D934D935C9313979093B0
:100C100035048093340408952091E8023091E9026C
:100C2000281B390B3093E9022093E80208952091A4
:100C3000EA023091EB02280F391F3093EB02209328
:100C4000EA0208958091E8029091E9020895809166
:100C5000EA029091EB0208959093E9028093E802F2
:100C600008959093EB028093EA02089520E080912A
:100C7000E8029091E902181619060CF021E0822F83
:100C8000089580913A0490913B0408956091F00298
:100C90007091F1028091F2029091F3020E94E81D9E
:100CA000CB010895CF92DF92EF92FF920F931F93A3
:100CB000CF93DF93C4EFD2E064E4C62E63E0D62E78
:100CC000688179818A819B810E94E81D7B018C016A
:100CD000F60160817181828193810E94E81D9B01F0
:100CE000AC01C701B90141E00E94F7166881798122
:100CF0008A819B8120E030E040E85FE30E94141D80
:100D00000E94E81D7B018C01F60160817181828166
:100D100093810E94E81D9B01AC01C701B90141E02C
:100D20000E94F716688179818A819B810E94E81D63
:100D30007B018C01F601608171818281938120E0C9
:100D400030E040E85FE30E94141D0E94E81D9B0113
:100D5000AC01C701B90141E00E94F7166991799190
:100D60008991999120E030E040E85FE30E94141DF2
:100D70000E94E81D7B018C01F601619171918191C6
:100D800091916F0120E030E040E85FE30E94141D84
:100D90000E94E81D9B01AC01C701B90141E00E941E
:100DA000F716F3E0C434DF0709F08ACFDF91CF9163
:100DB0001F910F91FF90EF90DF90CF900895CF9308
:100DC000DF93C0E0D0E0C0FF06C0CE0167E270E074
:100DD00041E00E94F7162196C435D105A1F7DF91B5
:100DE000CF910895AF92BF92CF92DF92EF92FF9290
:100DF0000F931F930E94F7117B018C012091360401
:100E00003091370440913804509139040E94141DE8
:100E100020E030E048E453E40E94041F18160CF070
:100E20006CC080913404909135048431910509F4AB
:100E300064C0E0923604F0923704009338041093B3
:100E400039045C01AA0CBB1CAA0CBB1CF501EC50BC
:100E5000FD4F8091EC029091ED02A091EE02B091D5
:100E6000EF0280839183A283B383F501EC5BFC4F97
:100E700080E090E0A8E3B2E480839183A283B3830F
:100E80006091F0027091F1028091F2029091F30270
:100E900026E53EE049E450E40E94081F20E030E0EF
:100EA00044E353E40E94801D7B018C01C8010E9431
:100EB0007D1DE4E9CE2EE3E0DE2ECA0CDB1C20E033
:100EC00030E040E05FEB0E94081FF6016083718311
:100ED00082839383B701C8010E946B1F24EE33E025
:100EE000A20EB31E20E030E040E05FEB0E94081F3E
:100EF000F50160837183828393831F910F91FF902B
:100F0000EF90DF90CF90BF90AF90089583B186951A
:100F100080FF07C08091B604813049F01092B6047A
:100F20000895489B0AC08091B604882311F482E09A
:100F300001C081E08093B604089589B1869580FF51
:100F400002C00E94F20608950E9486070E94710462
:100F50000E944605089580E00E940A0DA0E0B0E0DE
:100F6000BC01CD010E94191E20E030EC4FE754E493
:100F70000E94801D20E030E040EF52E40E94081FF4
:100F80000E94E81D625E7F4F882777FD8095982F2D
:100F90000E941B1E6093F0027093F1028093F20294
:100FA0009093F30208956F927F928F929F92AF92E7
:100FB000BF92CF92DF92EF92FF920F931F930E9406
:100FC000AB076091F0027091F1028091F202909172
:100FD000F30226E53EE049E450E40E94081F20E0C9
:100FE00030E044E353E40E94801D0E947D1DA090E8
:100FF000EC02B090ED02C090EE02D090EF0220E043
:1010000030E040EE50E40E94081F0E94E81D7095F9
:1010100061957F4F882777FD8095982F0E941B1E32
:101020003B014C01C601B5010E94E81D7B018C010A
:10103000C601B501A40193010E94151D0E94E81D7F
:101040009B01AC01C7016EE270E0A90129E230E02A
:1010500001E00E943217E090EC02F090ED02009166
:10106000EE021091EF02C801B70120E030E040E845
:101070005FE30E94141D0E94E81D5B016C01C80122
:10108000B701A40193010E94151D20E030E040E863
:101090005FE30E94141D0E94E81D9B01AC01C50185
:1010A0006EE270E0A90129E230E001E00E9432170F
:1010B0001F910F91FF90EF90DF90CF90BF90AF9076
:1010C0009F908F907F906F900895CF92DF92EF92D4
:1010D000FF920F931F93CF93DF936091EC02709177
:1010E000ED028091EE029091EF0220E030E040EAC4
:1010F00050E40E94141D0E94E81D6B0100E010E006
:10110000ABE2EA2EF12C1EC0E091CD01F091CE01B0
:10111000E00FF11FEC0FFD1F80818E3239F4CE01FC
:101120008C0D9D1DB70141E00E94F7162196CA3033
:10113000D10551F7065F1F4F0894E11CF11C0233E3
:10114000110519F0C0E0D0E0DFCF0E94D3070E9464
:10115000DF06DF91CF911F910F91FF90EF90DF900D
:10116000CF900895EF92FF920F931F9385E090E048
:101170009093E9028093E8021092EB021092EA0247
:1011800080E090E0A8E2B2E48093EC029093ED025C
:10119000A093EE02B093EF020E94AB0782E080932F
:1011A000B60480E090E00F2EF0E0EF2EF0E0FF2E8E
:1011B000F0E80F2FFFEB1F2FF02D20E030E040E094
:1011C00050E0FC01EC50FD4FE082F182028313837A
:1011D000FC01EC5BFC4FE082F18202831383FC0193
:1011E000EC56FC4F2083318342835383FC01EC5146
:1011F000FC4F2083318342835383049680359105CD
:1012000001F7109235041092340420933604309381
:101210003704409338045093390410923B041092E1
:101220003A041F910F91FF90EF90089581E0809311
:10123000D70080EA8093D80082E189BD09B400FE1E
:10124000FDCF80E98093D8001092E00010923C041A
:1012500010923D048CE08093E20078940895809190
:101260003C0408952FB7F89480913C04882369F0DA
:1012700083E08093E9009BE68091E80085FD09C04A
:1012800082FF03C09093E800F7CF2FBF2FEF3FEF0F
:101290000CC09091F1008091E80085FD03C08BE6C1
:1012A0008093E8002FBF292F30E0C90108952FB7A0
:1012B000F89480913C04882311F490E010C083E0FE
:1012C0008093E9009091F200992349F48091E8001D
:1012D00082FF05C085FD03C08BE68093E8002FBF29
:1012E000892F089580913C04882371F09FB7F8946A
:1012F00083E08093E9002BE602C02093E800809110
:10130000E80085FDFACF9FBF0895482F80913C04E7
:101310008823D9F12FB7F89484E08093E900809175
:101320003F04882341F08091E80085FD02C02FBF73
:1013300012C010923F049091E400975E34E08091D7
:10134000E80085FD13C02FBF8091E400891729F4C0
:1013500081E080933F048FEF089580913C048823BF
:10136000A1F02FB7F8943093E900E9CF4093F10052
:101370008091E80085FD03C08AE38093E80085E062
:1013800080933E042FBF80E008958FEF0895282FAB
:1013900080913C04882351F09FB7F89484E08093B7
:1013A000E9008091E80085FD03C09FBF8FEF08959D
:1013B0002093F1008091E80085FD03C08AE38093CB
:1013C000E80085E080933E049FBF80E00895CF93BE
:1013D000DF93EC0180913C04882309F41CC13FB7E2
:1013E000F89484E08093E90080913F04882309F415
:1013F00008C18091E80085FD02C03FBF0CC110927A
:101400003F04FFC09091E400975E8091E80085FD65
:1014100013C03FBF8091E400891721F481E08093DD
:101420003F04F9C080913C04882309F4F4C03FB71D
:10143000F894B093E900E9CF8091F200242F281BA3
:10144000822F90E06817790708F4262F822F90E00A
:101450008134910508F0C6C08A5A9F4FFC01EE0FF7
:10146000FF1F0590F491E02D099489918093F1007C
:1014700089918093F10089918093F1008991809303
:10148000F10089918093F10089918093F100899115
:101490008093F10089918093F10089918093F1000C
:1014A00089918093F10089918093F10089918093D3
:1014B000F10089918093F10089918093F1008991E5
:1014C0008093F10089918093F10089918093F100DC
:1014D00089918093F10089918093F10089918093A3
:1014E000F10089918093F10089918093F1008991B5
:1014F0008093F10089918093F10089918093F100AC
:1015000089918093F10089918093F1008991809372
:10151000F10089918093F10089918093F100899184
:101520008093F10089918093F10089918093F1007B
:1015300089918093F10089918093F1008991809342
:10154000F10089918093F10089918093F100899154
:101550008093F10089918093F10089918093F1004B
:1015600089918093F10089918093F1008991809312
:10157000F10089918093F10089918093F100899124
:101580008093F10089918093F10089918093F1001B
:1015900089918093F10089918093F10089918093E2
:1015A000F10089918093F10089918093F1008991F4
:1015B0008093F10089918093F10089918093F100EB
:1015C00089918093F10089918093F10089918093B2
:1015D000F10089918093F10089918093F1008991C4
:1015E0008093F10089918093F1008091E80085FD5E
:1015F00002C05093E800621B7109A0933E043FBFF4
:1016000004C0B4E040E45AE3A5E06115710509F0B7
:10161000F9CE80E001C08FEFDF91CF9108959FB7A1
:10162000F89480913E04882341F084E08093E9009F
:101630008AE38093E80010923E049FBF0895609172
:10164000CF017091D0018091D1019091D201089584
:101650008091D30108958091D40108958091D5019E
:10166000089580913D040895282F9FB7F8948091A4
:101670003C04882339F082E08093E9008091E800FF
:1016800085FD03C09FBF8FEF089581EA8093F1002D
:1016900080E28093F1001092F1001092F10010921C
:1016A000F1001092F10081E08093F1001092F100BE
:1016B0002093F1008AE38093E8009FBF80E00895C3
:1016C0001F920F920FB60F9211248F939F938091C8
:1016D000E1001092E100982F83FF11C01092E90001
:1016E00081E08093EB001092EC0082E18093ED00AA
:1016F00088E08093F00010923C0410923D0492FF29
:1017000013C080913C04882379F080913E048823A3
:1017100059F0815080933E04882331F484E0809313
:10172000E9008AE38093E8009F918F910F900FBEAC
:101730000F901F9018951F920F920FB60F921124C1
:101740000F931F932F933F934F935F936F937F93C9
:101750008F939F93AF93BF93EF93FF931092E90002
:101760008091E80083FF3CC14091F1003091F1008D
:101770008091F100682F70E02091F100922F80E0BD
:10178000682B792B8091F100A82FB0E02091F10017
:10179000922F80E0A82BB92B1091F1000091F1005D
:1017A00082EF8093E800363009F05AC023E531E03B
:1017B000A90145505040F9013797859194918617BA
:1017C000970701F5FA01859194918A179B07D1F447
:1017D0009A012E5F3F4FF901659174912E5F3F4F43
:1017E000F9014491212F30E0902F80E0282B392BF4
:1017F0002F3F310519F010F02FEF30E0241758F487
:10180000422F09C0295F3F4F495F5F4FF1E02D37FD
:101810003F0789F6E5C05EEF8091E800282F30E0B1
:10182000C90185709070892BB9F322FDDCC0342F7B
:10183000413108F030E1232FCB0106C0FC010196B5
:10184000E491E093F10021502223C1F7630F711D51
:10185000431B5093E8004423F9F63031E9F2C3C04A
:10186000353061F48EEF8093E8008091E80080FFCE
:10187000FCCF862F80688093E300B5C0393051F5E6
:10188000442309F0ADC060933C0410923D041092D3
:101890003E048EEF8093E80086E791E021E02093FC
:1018A000E900FC010196E491E093EB00EE2369F07E
:1018B000AC014F5F5F4FFC0184918093EC00CA0143
:1018C0000196FA0134913093ED002F5F253039F7FE
:1018D0008EE181C0383061F4403809F081C08091D8
:1018E000E80080FFFCCF80913C048093F10050C061
:1018F000313289F4413A09F073C08091E80080FFE9
:10190000FCCFEFECF1E081918093F10081E0E63DC6
:10191000F807C9F73DC03032A1F4413209F060C088
:101920008091E80082FFFCCFEFECF1E08091F100C4
:10193000819381E0E63DF807C9F78BEF8093E800DB
:1019400027C0323251F4413209F04AC060933D045D
:101950008091E80080FFFCCF1BC03323E9F4809125
:10196000E80080FFFCCF423811F080E00DC0A0936A
:10197000E9008091EB0090E025E0969587952A9507
:10198000E1F781701092E9008093F1001092F1006C
:101990008EEF8093E80027C0313011F0333001F52D
:1019A0004230F1F4672BE1F42A2F2F77822F8150F8
:1019B0008430B0F48EEF8093E8002093E900333058
:1019C00079F089E18093EB0081E090E002C0880F1C
:1019D000991F2A95E2F78093EA001092EA0003C06B
:1019E00081E28093EB00FF91EF91BF91AF919F91C6
:1019F0008F917F916F915F914F913F912F911F91A7
:101A00000F910F900FBE0F901F90189587E880934D
:101A10007A000895982F9F71906490937C00807253
:101A200080937B0080917A00806480937A0080911B
:101A30007A0086FDFCCF2091780030917900C901B1
:101A4000089560919C0470919D0480919E049091F2
:101A50009F042091A0043091A1044091A2045091D0
:101A6000A3040E94151D60939C0470939D048093B1
:101A70009E0490939F040895CF93DF9320914C048C
:101A800030914D042150304030934D0420934C044C
:101A900020919A0430919B04DC01AA0FBB1FFD0129
:101AA000EA5BFB4F1182108280916604909167047B
:101AB000029690936704809366042F5F3F4F3093A4
:101AC0009B0420939A04FD01E05CFB4F808191818F
:101AD000ED01CC0FDD1FC25BDB4F05979983888337
:101AE0009D012F5F3F4FAC01465F5F4FF901EE0F45
:101AF000FF1FE25BFB4F51834083888199810297EE
:101B00004CF482E090E09983888385E090E09183B3
:101B100080830BC04335510544F082E590E091830A
:101B200080838FE490E099838883AA0FBB1FA65A15
:101B3000BB4F81E090E08D939C93220F331F265A78
:101B40003B4FF90191838083DF91CF910895CF932B
:101B5000DF93209166043091670421503040309328
:101B600067042093660420919A0430919B04DC0161
:101B7000AA0FBB1FFD01E65AFB4F11821082809114
:101B800098049091990402969093990480939804F4
:101B90002F5F3F4F30939B0420939A04FD01E25B3B
:101BA000FB4F80819181ED01CC0FDD1FC859DB4FC8
:101BB0000397998388839D012F5F3F4FAC014A5F54
:101BC0005F4FF901EE0FFF1FE859FB4F5183408330
:101BD00088819981181619064CF081E090E099836C
:101BE000888383E090E0918380830BC04435510566
:101BF00044F083E590E09183808381E590E09983D0
:101C00008883AA0FBB1FA058BB4F81E090E08D9343
:101C10009C93220F331F20583B4FF90191838083FF
:101C2000DF91CF910895209198043091990421502B
:101C30003040309399042093980420919A04309175
:101C40009B042150304030939B0420939A04FC0164
:101C5000EE0FFF1FE058FB4F118210820895609134
:101C60009C0470919D0480919E0490919F040E9419
:101C7000E81DCB0108958091080290910902089512
:101C8000FC01EE0FFF1FE05CFB4F80819181089506
:101C9000FC01EE0FFF1FEA5BFB4F808191810895ED
:101CA00080912402909125020895FC01EE0FFF1F00
:101CB000E25BFB4F808191810895FC01EE0FFF1FD5
:101CC000E65AFB4F80819181089580913002909176
:101CD00031020895FC01EE0FFF1FE859FB4F808190
:101CE00091810895FC01EE0FFF1FE058FB4F8081AA
:101CF0009181089580914C0490914D0408958091B4
:101D000066049091670408958091980490919904D5
:101D10000895EF92FF920F931F93CF93DF9320E8E4
:101D2000E22E24E0F22EC8E6D4E0F7018081918112
:101D3000892B09F46FC00881198160919C0470910E
:101D40009D0480919E0490919F0420E030E040E843
:101D50005FE30E94141D0E94E81D9B01AC01C801B5
:101D6000B90141E00E94F716088119810150104025
:101D700060919C0470919D0480919E0490919F04B9
:101D80000E94E81D9B01AC01C801B90141E00E941D
:101D9000F7160881198160919C0470919D048091CF
:101DA0009E0490919F040E94E81D9B01AC01C80114
:101DB000B90141E00E94F716088119810F5F1F4F9A
:101DC00060919C0470919D0480919E0490919F0469
:101DD0000E94E81D9B01AC01C801B90141E00E94CD
:101DE000F7160881198160919C0470919D0480917F
:101DF0009E0490919F0420E030E040E85FE30E9461
:101E0000151D0E94E81D9B01AC01C801B90141E00C
:101E10000E94F71682E090E0E80EF91E229698E9FB
:101E2000E91694E0F90609F080CFDF91CF911F9178
:101E30000F91FF90EF9008956F927F928F929F92F3
:101E4000AF92BF92CF92DF92EF92FF920F931F93C8
:101E5000CF93DF93AA24BB24F501E65AFB4F808180
:101E60009181892B09F446C0F501E25BFB4F0081AB
:101E700011814EEF642E4FEF742E600E711E609133
:101E80009C0470919D0480919E0490919F0420E099
:101E900030E040E050E40E94141D0E94E81D6B01F8
:101EA000EE24FF2433E0832E912C800E911E1FC060
:101EB000E0912402F0912502E00FF11F80818E3223
:101EC00029F4CE01B60141E00E94F7160F5F1F4FC3
:101ED0002196C815D90561F785E090E0E80EF91E56
:101EE0000894C11CD11C99E1E916F10419F0E30131
:101EF0008701DECF82E090E0A80EB91E9CE0A91613
:101F0000B10409F0A9CFDF91CF911F910F91FF90FC
:101F1000EF90DF90CF90BF90AF909F908F907F9089
:101F20006F9008956F927F928F929F92AF92BF921F
:101F3000CF92DF92EF92FF920F931F93CF93DF9395
:101F4000AA24BB24F501EA5BFB4F80819181892B98
:101F500009F446C0F501E05CFB4F008111816DEF93
:101F6000662E6FEF762E600E711E60919C0470914C
:101F70009D0480919E0490919F0420E030E040E415
:101F800050E40E94141D0E94E81D6B01EE24FF2402
:101F900054E0852E912C800E911E1FC0E091080206
:101FA000F0910902E00FF11F80818E3229F4CE01F9
:101FB000B60141E00E94F7160F5F1F4F2196C8152A
:101FC000D90561F787E090E0E80EF91E0894C11C7E
:101FD000D11C91E3E916F10419F0E3018701DECF8A
:101FE00082E090E0A80EB91E96E0A916B10409F0AF
:101FF000A9CFDF91CF911F910F91FF90EF90DF90CC
:10200000CF90BF90AF909F908F907F906F900895EA
:102010000E94920F0E941C0F0E94890E0895CF9279
:10202000DF92EF92FF920F931F93CF93DF938091F4
:102030009A0490919B040E940C06EAE5EE2EE4E0DF
:10204000FE2E00E010E0C0E0D0E071E0C72ED12C01
:1020500003301105B4F40E946420FE01E05CFB4FE4
:102060006FE470E00E94B51F039691838083FE01A8
:10207000EA5BFB4FD182C082F7011182108213828A
:102080001282FE01E859FB4F11821082FE01E058D6
:10209000FB4F118210820F5F1F4F229684E090E069
:1020A000E80EF91E0C30110599F680E090E0A0E8EA
:1020B000B0EC80939C0490939D04A0939E04B093F5
:1020C0009F0483E090E090939B0480939A04909304
:1020D0004D0480934C041092670410926604109291
:1020E000990410929804DF91CF911F910F91FF9066
:1020F000EF90DF90CF900895EF92FF920F931F9390
:10210000CF93DF9300E010E0C0E0D0E0F1E0EF2EED
:10211000F12C033011058CF40E946420FE01E05C78
:10212000FB4F6FE470E00E94B51F0396918380839C
:10213000FE01EA5BFB4FF182E082809166049091A0
:1021400067040817190754F4FE01E25BFB4F118284
:102150001082FE01E65AFB4F11821082FE01E859FF
:10216000FB4F11821082FE01E058FB4F118210825A
:102170000F5F1F4F22960C30110559F680E090E05A
:10218000A0E8B0EC80939C0490939D04A0939E04DF
:10219000B0939F0483E090E090939B0480939A0413
:1021A00090934D0480934C0410926704109266043F
:1021B000109299041092980480E090E0A0E8BEE3A9
:1021C0008093A0049093A104A093A204B093A304CD
:1021D000DF91CF911F910F91FF90EF90089581E0D3
:1021E0000E940A0DA0E0B0E0BC01CD010E94191EC2
:1021F00020E030EC4FE754E40E94801D20E030E006
:1022000040E05FE30E94081F6093A0047093A10464
:102210008093A2049093A30420919C0430919D0488
:1022200040919E0450919F040E94151D60939C0450
:1022300070939D0480939E0490939F0420E030E06F
:102240004CE052E40E94041F87FF07C080919A046B
:1022500090919B041816190614F00E940F1008950F
:1022600080E090E0A0E0B0E08093AA049093AB04FB
:10227000A093AC04B093AD041092AF041092AE04DE
:102280001092B1041092B0048093A4049093A5041A
:10229000A093A604B093A70485B5877F85BD85B5B7
:1022A000846085BD85B58D7F85BD85B5816085BD23
:1022B000EEE6F0E0808181608083789408951F923B
:1022C0000F920FB60F921124EF92FF920F931F936C
:1022D0002F933F934F935F936F937F938F939F932E
:1022E000AF93BF93EF93FF936091A4047091A50403
:1022F0008091A6049091A70420E030E040E85FE3DD
:102300000E94151D6093A4047093A5048093A604F5
:102310009093A7048091A9048823C1F56091AA0431
:102320007091AB048091AC049091AD042CEE31E53A
:1023300045E052E40E94151D6093AA047093AB041B
:102340008093AC049093AD0420E030E04AE754E47D
:102350000E94801D7B018C010E94E81DDC01CB01E5
:102360006CE370E00E94B51F9093B1048093B004B9
:10237000C801B70120E030E040E752E40E94801D30
:102380000E94E81D7093AF046093AE046091A404B2
:102390007091A5048091A6049091A70420E030E0FC
:1023A00040EF51E40E94041F181664F480E090E0AE
:1023B000A0E0B0E08093A4049093A504A093A604A9
:1023C000B093A704FF91EF91BF91AF919F918F912F
:1023D0007F916F915F914F913F912F911F910F913D
:1023E000FF90EF900F900FBE0F901F9018952091C7
:1023F000AA043091AB044091AC045091AD04B901F2
:10240000CA0108958091A4049091A504A091A60406
:10241000B091A704BC01CD01089581E08093A90487
:1024200008951092A9041092A804089581E0809361
:10243000A8040895EF92FF920F931F93DF93CF9319
:10244000CDB7DEB7C052D1400FB6F894DEBF0FBE95
:10245000CDBF2DB73EB72A5030400FB6F8943EBFDF
:102460000FBE2DBFEDB7FEB731968E010F5F1F4F28
:10247000ADB7BEB712961C930E93119780E2E82E6B
:10248000F12CF382E28282E392E09583848380914F
:10249000AE049091AF04978386838091B0049091AD
:1024A000B104918780870E948E21F801019000205D
:1024B000E9F73197E01BF10B2DB73EB7265F3F4F91
:1024C0000FB6F8943EBF0FBE2DBFC801BF010E94DA
:1024D000E7090E942206ADB7BEB718970FB6F89469
:1024E000BEBF0FBEADBFEDB7FEB731968E010F5D1B
:1024F0001F4F12961C930E931197F382E28224E4ED
:1025000032E035832483978386830E948E21F801ED
:1025100001900020E9F73197E01BF10B2DB73EB792
:10252000285F3F4F0FB6F8943EBF0FBE2DBFC801C6
:10253000BF010E94E7090E942706ADB7BEB71897F2
:102540000FB6F894BEBF0FBEADBFEDB7FEB7319664
:102550008E010F5B1F4F12961C930E931197F382FF
:10256000E28220E532E035832483978386830E94CC
:102570008E21F80101900020E9F73197E01BF10B63
:102580002DB73EB7285F3F4F0FB6F8943EBF0FBE42
:102590002DBFC801BF010E94E7090E947A0EADB7A6
:1025A000BEB718970FB6F894BEBF0FBEADBFEDB75C
:1025B000FEB731968E010F591F4F12961C930E9342
:1025C0001197F382E2822CE532E0358324839783EE
:1025D00086830E948E21F80101900020E9F731974F
:1025E000E01BF10B2DB73EB7285F3F4F0FB6F894B5
:1025F0003EBF0FBE2DBFC801BF010E94E7090E9468
:102600007F0EADB7BEB718970FB6F894BEBF0FBE1A
:10261000ADBFEDB7FEB731968E010F571F4F129623
:102620001C930E931197F382E2822CE632E03583FD
:102630002483978386830E948E21F80101900020D5
:10264000E9F73197E01BF10B2DB73EB7285F3F4FFD
:102650000FB6F8943EBF0FBE2DBFC801BF010E9448
:10266000E7090E94840EADB7BEB718970FB6F8946D
:10267000BEBF0FBEADBFEDB7FEB731968E010F5591
:102680001F4F12961C930E931197F382E2822BE751
:1026900032E035832483978386830E948E21F8015C
:1026A00001900020E9F73197E01BF10B2DB73EB701
:1026B000285F3F4F0FB6F8943EBF0FBE2DBFC80135
:1026C000BF010E94E7090E944106ADB7BEB7189747
:1026D0000FB6F894BEBF0FBEADBFEDB7FEB73196D3
:1026E0008E010F531F4F12961C930E931197F38276
:1026F000E2822BE832E035832483978386830E942D
:102700008E21F80101900020E9F73197E01BF10BD1
:102710002DB73EB7285F3F4F0FB6F8943EBF0FBEB0
:102720002DBFC801BF010E94E7090E944606ADB750
:10273000BEB718970FB6F894BEBF0FBEADBFEDB7CA
:10274000FEB731968E010F511F4F12961C930E93B8
:102750001197F382E2822EE932E0358324838A5591
:102760009040978386830E948E21F801019000207B
:10277000E9F73197E01BF10B2DB73EB7285F3F4FCC
:102780000FB6F8943EBF0FBE2DBFC801BF010E9417
:10279000E70981E00E940A0DADB7BEB718970FB6E2
:1027A000F894BEBF0FBEADBFEDB7FEB731968E0138
:1027B0000F5F1E4F12961C930E931197F382E282C5
:1027C00028EA32E035832483978386830E948E2112
:1027D000F80101900020E9F73197E01BF10B2DB7CC
:1027E0003EB7285F3F4F0FB6F8943EBF0FBE2DBFD8
:1027F000C801BF010E94E709C05EDE4F0FB6F89422
:10280000DEBF0FBECDBFCF91DF911F910F91FF9023
:10281000EF900895EF92FF920F931F93DF93CF9362
:10282000CDB7DEB7E0970FB6F894DEBF0FBECDBFD1
:102830008091A904882309F4A2C08091A804882368
:1028400009F49DC00E94EF162DB73EB72A503040C4
:102850000FB6F8943EBF0FBE2DBFEDB7FEB7319651
:102860008E010F5F1F4FADB7BEB712961C930E932C
:10287000119790E1E92EF12CF382E28285EB92E050
:10288000958384838091AE049091AF04978386836F
:102890008091B0049091B104918780870E948E212D
:1028A0002DB73EB7265F3F4F0FB6F8943EBF0FBE21
:1028B0002DBF80E090E060E070E0A80121E00E9480
:1028C000E6180E942206ADB7BEB718970FB6F89467
:1028D000BEBF0FBEADBFEDB7FEB731968E010F5E26
:1028E0001F4F12961C930E931197F382E28225ECF0
:1028F00032E035832483978386830E948E212DB70F
:102900003EB7285F3F4F0FB6F8943EBF0FBE2DBFB6
:1029100080E090E06AE070E0A80121E00E94E61803
:102920000E942706ADB7BEB718970FB6F894BEBF82
:102930000FBEADBFEDB7FEB731968E010F5D1F4FD5
:1029400012961C930E931197F382E2822FEC32E0E1
:1029500035832483978386830E948E212DB73EB7CB
:10296000285F3F4F0FB6F8943EBF0FBE2DBF80E0EB
:1029700090E064E170E0A80121E00E94E618E09692
:102980000FB6F894DEBF0FBECDBFCF91DF911F9180
:102990000F91FF90EF9008952F923F924F925F9288
:1029A0006F927F928F929F92AF92BF92CF92DF925F
:1029B000EF92FF920F931F93DF93CF93CDB7DEB7C4
:1029C00028970FB6F894DEBF0FBECDBF9A838983D8
:1029D0005C834B833E832D83270136014D8D5E8DB5
:1029E0008E199F099B012C193D09F901AE9E90019A
:1029F000AF9E300DBE9E300D1124820F931F480FE5
:102A0000591F6801EE24FF241501240C351C860C87
:102A1000971C2DC0F8018081803279F0241535058E
:102A200064F0221533054CF46615770534F068150B
:102A300079051CF48C91803241F58F81988501963F
:102A400098878F830F5F1F4F2F5F3F4F1196EF8146
:102A5000F8858B819C81E817F907E4F20894E11C62
:102A6000F11C4A0D5B1DC80ED91E6F5F7F4FED81B3
:102A7000FE81EE16FF0614F080E008C029813A813D
:102A80008601DA0118861F82E2CF81E028960FB610
:102A9000F894DEBF0FBECDBFCF91DF911F910F9194
:102AA000FF90EF90DF90CF90BF90AF909F908F906E
:102AB0007F906F905F904F903F902F9008952F924E
:102AC0003F924F925F926F927F928F929F92AF92BE
:102AD000BF92CF92DF92EF92FF920F931F93CF930B
:102AE000DF930E94650E1C010E942F0E2C0108949A
:102AF00041085108662477244BC0CE010E94720E13
:102B0000892BD1F1C3010E94C0055C01C3010E9461
:102B1000CF056C01CE010E946A0E00D00894C10856
:102B2000D1080091DE021091DF027C010894E108D7
:102B3000F108EDB7FEB732822182C5010197B601D7
:102B400042E050E022E030E06201F3E0AF2EB12C31
:102B5000E3E08E2E912C0E94CC140F900F908823CE
:102B600059F0C3010E94DE05CE010E94130E84E0DD
:102B700090E00E9417060FC02196CC30D10509F0D5
:102B8000BCCF0894611C711CF4E16F16710419F03C
:102B9000C0E0D0E0B2CF80E090E0DF91CF911F9114
:102BA0000F91FF90EF90DF90CF90BF90AF909F90EC
:102BB0008F907F906F905F904F903F902F900895EF
:102BC0002F923F924F925F926F927F928F929F923D
:102BD000AF92BF92CF92DF92EF92FF920F931F932B
:102BE000CF93DF930E94500E1C010E942F0E1EEF08
:102BF000412E1FEF512E480E591E662477244CC0DB
:102C0000CE010E945D0E892BD9F1C3010E94C0053F
:102C10006C01C3010E94CF057C01CE010E94550EBC
:102C200000D00894E108F1080091DE021091DF0263
:102C3000FC013297ADB7BEB712963C922E92119717
:102C4000C6010197B70142E050E022E030E07F0189
:102C50006201B5E0AB2EB12CA5E08A2E912C0E942A
:102C6000CC140F900F90882359F0C3010E94DE0509
:102C7000CE010E94A70D82E090E00E9417060FC0CF
:102C80002196C630D10509F0BBCF0894611C711C98
:102C9000B4E16B16710419F0C0E0D0E0B1CF80E070
:102CA00090E0DF91CF911F910F91FF90EF90DF9017
:102CB000CF90BF90AF909F908F907F906F905F90DC
:102CC0004F903F902F9008952F923F924F925F9296
:102CD0006F927F928F929F92AF92BF92CF92DF922C
:102CE000EF92FF920F931F93CF93DF930E943B0EBF
:102CF0001C010E942F0EADEF4A2EAFEF5A2E480E48
:102D0000591E662477244CC0CE010E94480E892BA0
:102D1000D9F1C3010E94C0056C01C3010E94CF0517
:102D20007C01CE010E94400E00D00894E108F10819
:102D30000091DE021091DF02FC013397ADB7BEB700
:102D400012963C922E921197C6010197B70142E06C
:102D500050E022E030E07F016201F7E0AF2EB12CBD
:102D6000E7E08E2E912C0E94CC140F900F908823B8
:102D700059F0C3010E94DE05CE010E943C0D81E0A6
:102D800090E00E9417060FC02196C330D10509F0CC
:102D9000BBCF0894611C711CB4E16B16710419F06F
:102DA000C0E0D0E0B1CF80E090E0DF91CF911F9103
:102DB0000F91FF90EF90DF90CF90BF90AF909F90DA
:102DC0008F907F906F905F904F903F902F900895DD
:102DD0000E9464160E94E0150E945F150895E7EBBB
:102DE000F4E0119286E0EF3AF807D9F708959C01D4
:102DF00097FD37C077FD35C08435910594F5603374
:102E000071057CF5CB0173E0959587957A95E1F78F
:102E10006770452B99F0E4E58E9FF0011124E20FD5
:102E2000F31FE954FB4F81E090E002C0880F991F27
:102E30006A95E2F72081282B20830895E4E58E9F90
:102E4000F0011124E20FF31FE954FB4F81E090E001
:102E500002C0880F991F6A95E2F780952081282388
:102E6000208308952F923F924F925F926F927F92AC
:102E70008F929F92AF92BF92CF92DF92EF92FF928A
:102E80000F931F93DF93CF93CDB7DEB72E970FB677
:102E9000F894DEBF0FBECDBF7C016B014A01390142
:102EA0001C870B8784179507F9F45B0110C0C701D5
:102EB000B5014B855C850E94F716C614D70424F42F
:102EC0000894A11CB11C03C00894A108B108C61441
:102ED000D7042CF46A147B040CF4FDC0E8CFA614CC
:102EE000B7040CF4F8C0E3CF62177307F9F45C0180
:102EF00010C0C501B6014B855C850E94F716E81429
:102F0000F90424F40894A11CB11C03C00894A1087E
:102F1000B108E814F9042CF48A149B040CF4DBC007
:102F2000E8CFA814B9040CF4D6C0E3CF481759076A
:102F300024F447017A013B016901B4016E197F094C
:102F4000882777FD8095982F0E941B1E6F837887B6
:102F500089879A87B3016C197D09882777FD809549
:102F6000982F0E941B1E6B837C838D839E832F81F1
:102F7000388549855A850E94801D1B012C0120E05F
:102F800030E040E050E00E94041F87FF04C057FA81
:102F9000509457F85094DA82C9820F2EF0E0AF2E89
:102FA000F0E0BF2EF0E0CF2EF0E0DF2EF02D7FC05E
:102FB000C70169817A814B855C850E94F716C6013D
:102FC000B501A20191010E94151D3BC0C701698195
:102FD0007A814B855C850E94F7161E861D866B8163
:102FE0007C818D819E8120E030E040E050E00E94B5
:102FF000041F181624F421E030E03E872D8700E0FE
:1030000010E06B817C818D819E8120E030E040E08A
:1030100050E00E94791D882314F401E010E08D85B2
:103020009E85801B910BE981FA81E80FF91FFA83D5
:10303000E983C601B50120E030E040E85FE30E948B
:10304000141D5B016C0120E030E040E05FE30E9472
:10305000041F8823CCF06B817C818D819E8120E0D0
:1030600030E040E050E00E94041F18163CF4298133
:103070003A81621673060CF0A9CF06C089819A8145
:10308000861597050CF0A2CF6F81788589859A8582
:1030900020E030E040E050E00E94041F181624F4C5
:1030A0000894E11CF11C03C00894E108F1086F8149
:1030B000788589859A8520E030E040E050E00E94E4
:1030C000041F181624F48E149F042CF071CFE814FA
:1030D000F9040CF06DCF2E960FB6F894DEBF0FBE3C
:1030E000CDBFCF91DF911F910F91FF90EF90DF90B7
:1030F000CF90BF90AF909F908F907F906F905F9098
:103100004F903F902F9008954F925F926F927F92D1
:103110008F929F92AF92BF92CF92DF92EF92FF92E7
:103120000F931F93CF93DF933B01490125E0429F0B
:10313000A0011124A5E7EA2EA1E0FA2EE40EF51E67
:103140008C01F1E04F2E512CEAE7AE2EE1E0BE2ECD
:10315000A40EB51EF70184918114910409F48095A1
:10316000C0E0D0E0C82EDD24BE01660D771DA201AF
:103170000C2E02C0440F551F0A94E2F74C215D212A
:103180000C2E02C0559547950A94E2F7C8010E949B
:10319000F7162196C830D10539F70894E11CF11CC7
:1031A0000F5F1F4FEA14FB04A9F6DF91CF911F9127
:1031B0000F91FF90EF90DF90CF90BF90AF909F90D6
:1031C0008F907F906F905F904F900895CF92DF9295
:1031D000EF92FF920F931F93CF93DF936B017A01CE
:1031E000E901082F10E008C0802F90E0B6019E0191
:1031F0000E9484180B5F1F5FF701E10FF11D4081F2
:10320000442391F7DF91CF911F910F91FF90EF90A1
:10321000DF90CF900895CF93DF9380E060E00E942D
:103220008019C7EBD4E081E069910E941E1986E005
:10323000CF3AD807C1F7DF91CF91089595B1829524
:10324000880F807E9F7D982B95B95F9827E030E0AE
:1032500070E08F98CB01022E02C0959587950A9455
:10326000E2F780FF02C02E9A01C02E988F9A21505B
:1032700030408FEF2F3F380761F75F9A08951F9313
:10328000182F579A249A259A269A879A2C985F9AEB
:103290002C9A80E061E20E941E19106880E0612F84
:1032A0000E941E1980E064E00E941E1980E063E124
:1032B0000E941E1980E06CE00E941E1980E060E20E
:1032C0000E941E1980E06CE00E941E1980E060E4FC
:1032D0000E941E1980E060E80E941E191F91089547
:1032E000CF93DF93C0E0D0E081E060E00E941E1940
:1032F000219681E0C83FD807B9F7DF91CF910895B3
:103300001F93182F606480E00E941E19106880E0EF
:10331000612F0E941E191F910895A1E1B0E0E3E919
:10332000F9E10C94C81F3C017F876E876A01FC019C
:1033300017821682838181FD03C06FEF7FEF6FC319
:103340009E012F5F3F4F398B288BF3012381EE8540
:10335000FF8523FD859123FF8191FF87EE878823D9
:1033600009F45AC3853251F4EE85FF8523FD85911A
:1033700023FF8191FF87EE87853229F490E0B30126
:103380000E946221E2CF982F10E088249924103205
:10339000B0F49B3269F09C3228F4903251F09332B1
:1033A00071F40BC09D3239F0903349F4116028C09C
:1033B0001260146025C0186023C0106121C017FD81
:1033C0002AC0892F80538A3078F416FF06C0FAE0AD
:1033D0009F9E902C1124980E13C03AE0839E802C5F
:1033E0001124880E10620CC09E3221F416FD14C305
:1033F000106406C09C3611F4106802C0983659F467
:10340000EE85FF8523FD959123FF9191FF87EE8740
:10341000992309F0BCCF892F8554833020F4812F64
:103420008061905E07C0892F8556833008F09FC168
:10343000812F8F7E86FD02C076E0972E6FE3F62EF9
:10344000F822953619F4F0E4FF2A07C0963619F4ED
:1034500020E8F22A02C091109A94F7FE0AC03BE3DA
:10346000391518F45CE3B52E02C0B92CB39427E0EB
:1034700009C047E0491520F4BB2447E0942EF7CF5C
:10348000292DBB24C60104969D878C87F601608197
:10349000718182819381AE014F5F5F4F0B2D0E943E
:1034A00074206C010981202E332400FF04C003FD29
:1034B00002C01DE209C0F1FE02C01BE205C0F2FC21
:1034C00002C010E001C010E2C1018C709070892B25
:1034D000B9F1112311F483E001C084E0881510F0E4
:1034E00088240AC0881AF3FC07C080E290E0B30188
:1034F0000E9462218A94C9F7112329F0812F90E05C
:10350000B3010E94622123FE03C005EF13E00EC049
:1035100009EF13E00BC0E114F10409F0805290E0D0
:10352000B3010E9462210F5F1F4F05C0EF2CFF24E3
:10353000F0E1EF22FF24F8018491882361F714C1A0
:10354000F7FE12C0BC0C24FE04C08A81813309F44A
:10355000BA941B141CF0BB24B3942DC0F8E0FB15E7
:1035600050F538E0B32E27C0F6FC25C0892D90E039
:103570008C159D054CF02CEFC2162FEFD20624F0CF
:1035800030E8F32A01C09A94992049F0E2E0F0E093
:10359000EC0FFD1FE90DF11D80818033A1F3F7FED3
:1035A0000AC0B92CB394892D90E0C816D90614F03E
:1035B000992401C09C18F7FC03C025E030E009C045
:1035C0001C141D041CF021E030E003C096012F5FA5
:1035D0003F4F112311F02F5F3F4F992029F0892D84
:1035E00090E00196280F391F882D90E028173907A1
:1035F00014F0882401C0821A4F2C5524C20189700E
:103600009070892B39F008C080E290E0B3010E94ED
:1036100062218A948820C1F7112329F0812F90E03C
:10362000B3010E94622143FE07C008C080E390E01E
:10363000B3010E9462218A948820C1F7F7FE46C038
:103640008601D7FE02C000E010E076010894E11C7C
:10365000F11CE01AF10A41E050E04C0F5D1FE40E4E
:10366000F51E26014B185108892D90E0AA24BB2491
:10367000A81AB90A5FEF0F3F150729F48EE290E010
:10368000B3010E946221C016D10634F040165106E3
:103690001CF4F701808101C080E3015010400894C0
:1036A000E11CF11C0A151B052CF090E0B3010E94EF
:1036B0006221E0CF0C151D0539F49A81963318F478
:1036C000953311F424FE81E390E04BC08A8181336D
:1036D00009F00F7E90E0B3010E9462219920A1F0D1
:1036E0008EE290E0B3010E94622112E0E1E0F0E09E
:1036F000EC0FFD1FE10FF11D1F5F808190E0B30112
:103700000E9462219A9491F744FC03C085E690E000
:1037100002C085E490E0B3010E946221D7FC05C09D
:10372000C114D10441F404FF06C0D094C194D1085F
:10373000D3948DE201C08BE290E0B3010E9462213C
:1037400080E305C08F5F26EF3FEFC20ED31E3AE045
:10375000C316D104BCF790E0B3010E946221C601F8
:10376000C096B3010E946221CC84DD8452C193369D
:1037700031F0933799F0933509F059C023C0F60121
:10378000808189835E010894A11CB11C22E030E095
:10379000C20ED31E21E0E22EF12C12C0F601A08051
:1037A000B18016FD03C06FEF7FEF02C0692D70E09E
:1037B00022E030E0C20ED31EC5010E9457217C01D9
:1037C0001F7713C0F601A080B18016FD03C06FEF14
:1037D0007FEF02C0692D70E022E030E0C20ED31E00
:1037E000C5010E944C217C01106813FF07C01BC05B
:1037F00080E290E0B3010E9462218A94882D90E0DB
:10380000E816F906A8F30FC0F50117FD859117FF1B
:1038100081915F0190E0B3010E94622181108A943E
:103820000894E108F108E114F10471F7F2C094364C
:1038300011F0993689F517FF08C0F6012081318112
:103840004281538184E090E00AC0F6018081918139
:103850009C01442737FD4095542F82E090E0C80E2C
:10386000D91E9FE6F92EF12257FF09C050954095C9
:10387000309521953F4F4F4F5F4F90E8F92ACA018D
:10388000B901AE014F5F5F4F2AE030E00E94D921BD
:10389000E82EE889EE1A41C0953721F41F7E2AE010
:1038A00030E01CC0197F9F3661F0903720F49835C6
:1038B00009F0B2C00FC0903739F0983709F0ACC0AA
:1038C00004C028E030E00AC0106114FD146020E15B
:1038D00030E004C014FD166020E132E017FF08C09C
:1038E000F601608171818281938144E050E008C0DB
:1038F000F60180819181BC0180E090E042E050E0DF
:10390000C40ED51EAE014F5F5F4F0E94D921E82E35
:103910005889E51A8FE7F82EF122F6FE0BC08EEFDC
:10392000F822E91438F4F4FE07C0F2FC05C09FEE5B
:10393000F92202C01E2D01C0192DF4FE0DC0FE019A
:10394000EE0DF11D8081803319F4E9EEFE2208C0EE
:103950001F5FF2FE05C003C08F2D867809F01F5F40
:103960000F2DF3FC14C0F0FE0FC0181510F09E2CA4
:103970000BC09E2C980C911A182D06C080E290E086
:10398000B3010E9462211F5F1815C0F304C018150F
:1039900010F4811A01C0882404FF0FC080E390E076
:1039A000B3010E94622102FF1DC001FD03C088E730
:1039B00090E00EC088E590E00BC0802F867891F0F3
:1039C00001FF02C08BE201C080E2F7FC8DE290E0D3
:1039D000B3010E94622106C080E390E0B3010E941F
:1039E00062219A94E914C0F3EA94E1E0F0E0EC0F6C
:1039F000FD1FEE0DF11D808190E0B3010E94622158
:103A0000EE2091F706C080E290E0B3010E946221AF
:103A10008A948820C1F799CCF30166817781CB0124
:103A20006196E2E10C94E41F5058BB27AA270ED000
:103A3000A0C169D130F06ED120F031F49F3F11F474
:103A40001EF45EC10EF4E095E7FB54C1E92FB3D13B
:103A500080F3BA17620773078407950718F071F4AB
:103A60009EF5CBC10EF4E0950B2EBA2FA02D0B01C5
:103A7000B90190010C01CA01A0011124FF27591BB3
:103A800099F0593F50F4503E68F11A16F040A22FB9
:103A9000232F342F4427585FF3CF4695379527952A
:103AA000A795F0405395C9F77EF41F16BA0B620B29
:103AB000730B840BBAF09150A1F0FF0FBB1F661F70
:103AC000771F881FC2F70EC0BA0F621F731F841FB3
:103AD00048F4879577956795B795F7959E3F08F0D9
:103AE000B3CF9395880F08F09927EE0F9795879598
:103AF0000895DCD008F481E0089514D1E3954AC11B
:103B00000CD037C107D140F0FED030F021F45F3F38
:103B100019F0F0C0511172C1F3C04DD198F399233F
:103B2000C9F35523B1F3951B550BBB27AA27621781
:103B30007307840738F09F5F5F4F220F331F441FC6
:103B4000AA1FA9F333D00E2E3AF0E0E830D09150FE
:103B50005040E695001CCAF729D0FE2F27D0660FEB
:103B6000771F881FBB1F261737074807AB07B0E82A
:103B700009F0BB0B802DBF01FF2793585F4F2AF040
:103B80009E3F510568F0B6C039C15F3FECF3983EE7
:103B9000DCF3869577956795B795F7959F5FC9F79D
:103BA000880F911D9695879597F90895E1E0660F26
:103BB000771F881FBB1F621773078407BA0720F09F
:103BC000621B730B840BBA0BEE1F88F7E095089508
:103BD00004D06894B11112C10895F5D088F09F57B0
:103BE00090F0B92F9927B751A0F0D1F0660F771F49
:103BF000881F991F1AF0BA95C9F712C0B13081F029
:103C0000FCD0B1E00895F9C0672F782F8827B85FFE
:103C100039F0B93FCCF3869577956795B395D9F789
:103C20003EF490958095709561957F4F8F4F9F4F93
:103C30000895E89409C097FB3EF49095809570959F
:103C400061957F4F8F4F9F4F9923A9F0F92F96E9E8
:103C5000BB279395F695879577956795B795F1115D
:103C6000F8CFFAF4BB0F11F460FF1BC06F5F7F4FFA
:103C70008F4F9F4F16C0882311F096E911C077230C
:103C800021F09EE8872F762F05C0662371F096E815
:103C9000862F70E060E02AF09A95660F771F881FE4
:103CA000DAF7880F9695879597F90895990F000888
:103CB000550FAA0BE0E8FEEF16161706E807F907FE
:103CC000C0F012161306E407F50798F0621B730B99
:103CD000840B950B39F40A2661F0232B242B252B1A
:103CE00021F408950A2609F4A140A6958FEF811DBD
:103CF000811D089597F99F6780E870E060E008955E
:103D00009FEF80EC089500240A94161617061806F3
:103D10000906089500240A941216130614060506CF
:103D20000895EECF50D0E8F3E894E0E0BB279F572A
:103D3000F0F02AED3FE049EC06C0EE0FBB0F661F26
:103D4000771F881F28F0B23A62077307840728F0AC
:103D5000B25A620B730B840BE3959A9572F7803815
:103D600030F49A95BB0F661F771F881FD2F79048D3
:103D7000BAC0092E0394000C11F4882352F0BB0F33
:103D800040F4BF2B11F460FF04C06F5F7F4F8F4F73
:103D90009F4F0895EF93E0FF06C0A2EA2AED3FE0AF
:103DA00049EC5FEB53DEE5DF0F90039401FC905884
:103DB000EEE2F1E0A4C057FD9058440F551F59F0B2
:103DC0005F3F71F04795880F97FB991F61F09F3F08
:103DD00079F087950895121613061406551FF2CF31
:103DE0004695F1DF08C0161617061806991FF1CF81
:103DF00086957105610508940895E894BB276627A8
:103E00007727CB0197F9089551DF08F48FEF0895D4
:103E10000BD0AFCF78DF28F07DDF18F0952309F0C5
:103E200069CF6ECF1124EACFC6DFA0F3959FD1F3FF
:103E3000950F50E0551F629FF001729FBB27F00D58
:103E4000B11D639FAA27F00DB11DAA1F649F6627AD
:103E5000B00DA11D661F829F2227B00DA11D621FFC
:103E6000739FB00DA11D621F839FA00D611D221FB6
:103E7000749F3327A00D611D231F849F600D211D9A
:103E8000822F762F6A2F11249F5750408AF0E1F03D
:103E900088234AF0EE0FFF1FBB1F661F771F881F86
:103EA00091505040A9F79E3F510570F023CFA6CF07
:103EB0005F3FECF3983EDCF3869577956795B79571
:103EC000F795E7959F5FC1F7FE2B880F911D96959B
:103ED000879597F908959F9325DF0F9007FCEE5F74
:103EE00059CF9F3F31F0915020F487957795679592
:103EF000B795880F911D9695879597F908959F938B
:103F00008F937F936F93FF93EF939B01AC0180DFBF
:103F1000EF91FF9105D02F913F914F915F9178CF15
:103F2000DF93CF931F930F93FF92EF92DF927B016A
:103F30008C01689405C0DA2EEF0176DFFE01E8946B
:103F4000A5912591359145915591AEF3EF017EDD17
:103F5000FE019701A801DA9479F7DF90EF90FF90C6
:103F60000F911F91CF91DF91089597FB092E07269E
:103F70000AD077FD04D043D006D000201AF4709503
:103F800061957F4F0895F6F7909581959F4F08951D
:103F90002F923F924F925F926F927F928F929F9259
:103FA000AF92BF92CF92DF92EF92FF920F931F9347
:103FB000CF93DF93CDB7DEB7CA1BDB0B0FB6F894F8
:103FC000DEBF0FBECDBF09942A88398848885F8438
:103FD0006E847D848C849B84AA84B984C884DF80A9
:103FE000EE80FD800C811B81AA81B981CE0FD11D8D
:103FF0000FB6F894DEBF0FBECDBFED010895AA1B2A
:10400000BB1B51E107C0AA1FBB1FA617B70710F0C3
:10401000A61BB70B881F991F5A95A9F780959095F5
:10402000BC01CD010895A0E0B0E0E9E1F0E20C941C
:10403000D01FEC01A880B980CA80DB80A114B10434
:10404000C104D10441F484E2A82E89EDB82E8BE599
:10405000C82E87E0D82EC601B5012DE133EF41E02F
:1040600050E00E945D2527EA31E440E050E00E94E4
:104070003E257B018C01C601B5012DE133EF41E006
:1040800050E00E945D25CA01B9012CEE34EF4FEFDC
:104090005FEF0E943E256E0D7F1D801F911F97FFD1
:1040A00004C06150704080409048688379838A835F
:1040B0009B839B013F77C901CDB7DEB7EAE00C9443
:1040C000EC1F0E941320089584EE92E00E941320BA
:1040D0000895A0E0B0E08093E4029093E502A093FD
:1040E000E602B093E7020895283008F027E033276E
:1040F000DA01990F311D87FD916000966105710508
:1041000039F432602E5F3D9330E32A95E1F708954C
:104110009F3F30F080387105610509F03C5F3C5FDE
:104120003D93913008F08068911DDF93CF931F93EA
:104130000F93FF92EF92192F987F9695E92F9695FE
:104140009695E90FFF27E95AFB4F99273327EE246D
:10415000FF24A701E70105900894079428F4360F7F
:10416000E71EF81E491F511D660F771F881F991FF4
:104170000694A1F70590079428F4E70EF81E491F4E
:10418000561FC11D770F881F991F661F0694A1F740
:104190000590079428F4F80E491F561FC71FD11D1C
:1041A000880F991F661F771F0694A1F70590079443
:1041B00020F4490F561FC71FD81F990F661F771F7E
:1041C000881F0694A9F784911095177041F0D69531
:1041D000C79557954795F794E7941A95C1F7EDEF72
:1041E000F3E068941590159135916591959105903E
:1041F0007FE27395E118F10A430B560BC90BD00906
:10420000C0F7E10CF11E431F561FC91FD01D7EF4DD
:10421000703311F48A95E6CFE894015030F0080F1E
:104220000AF40027021708F4202F2395022F7A336F
:1042300028F079E37D932A95E9F710C07D932A95BC
:1042400089F6069497956795379517951794E11811
:10425000F10A430B560BC90BD00998F023957E91B8
:1042600073957A3308F070E37C932013B8F77E914E
:1042700070617D9330F0839571E37D9370E32A95AF
:10428000E1F71124EF90FF900F911F91CF91DF91F3
:10429000992787FD90950895FC0105906150704025
:1042A0000110D8F7809590958E0F9F1F0895FC01FF
:1042B0006150704001900110D8F7809590958E0F55
:1042C0009F1F08950F931F93CF93DF938C01EB01F2
:1042D0008B8181FF1BC082FF0DC02E813F818C81AD
:1042E0009D812817390764F4E881F9810193F983E6
:1042F000E88306C0E885F985802F0995892B31F47C
:104300008E819F8101969F838E8302C00FEF1FEFE6
:10431000C801DF91CF911F910F910895AEE0B0E0F9
:10432000E4E9F1E20C94D61F0D891E898F89988DDE
:1043300097FF02C080E090E801979E838D831A83E7
:10434000098386E08C839E01255E3F4FCE01019656
:10435000698D7A8DA9010E948D194D815E8157FD6D
:104360000AC02F813885421753070CF49A01020FB7
:10437000131FF80110822E96E4E00C94F21FAEE0B9
:10438000B0E0E5ECF1E20C94D81F85E08C838B89DA
:104390009C899A8389839E01295E3F4FCE010196B5
:1043A0006D897E89A9010E94BB232E96E2E00C94C0
:1043B000F41FFA01AA27283051F1203181F1E89445
:1043C0006F936E7F6E5F7F4F8F4F9F4FAF4FB1E008
:1043D0003ED0B4E03CD0670F781F891F9A1FA11D03
:1043E000680F791F8A1F911DA11D6A0F711D811D04
:1043F000911DA11D20D009F468943F912AE0269FC9
:1044000011243019305D3193DEF6CF010895462F27
:104410004770405D4193B3E00FD0C9F7F6CF462F08
:104420004F70405D4A3318F0495D31FD4052419371
:1044300002D0A9F7EACFB4E0A6959795879577952E
:104440006795BA95C9F700976105710508959B01B5
:10445000AC010A2E06945795479537952795BA953E
:10446000C9F7620F731F841F951FA01D0895FC01DB
:1044700020FD08C023FD05C022FF02C073836283B4
:10448000518340830895EF92FF920F931F9344FF4F
:1044900002C033E011C046FF02C034E00DC0DB01B2
:1044A000FC01AA0FBB1FEE1FFF1F1094D1F76A0F6C
:1044B0007B1F8E1F9F1F31E0660F771F881F991F7C
:1044C0003150D1F77B018C01E20EF11C011D111D51
:1044D000A8019701B701CA011F910F91FF90EF90BA
:1044E00008950F931F93CF93DF938C01C8010E940F
:1044F000DF24EC0197FD08C00E94CC24892BB1F782
:10450000CE01B8010E942125CE01DF91CF911F91EC
:104510000F910895A0E0B0E0E0E9F2E20C94D01F22
:10452000EC01C62E5A01122F0E94DF24AC018B32FF
:1045300019F08D3251F41068CA9409F46DC0CE019F
:104540000E94DF24AC0197FD67C06DEFD62ED1220B
:104550008D2D807301F54033F1F4CA9409F447C0FE
:10456000CE010E94DF24AC0197FD41C082E0D82A31
:10457000483711F0483559F480E4D82ACA94B9F183
:10458000CE010E94DF24AC0199232CF430C0D6FC6C
:1045900002C080E1D82AEE24FF248701242F205373
:1045A000283088F0D4FC09C02A3068F0D6FE05C057
:1045B0002F7D822F8151863028F0CA01BE010E94D2
:1045C000212512C02750C801B7014D2D0E9443225A
:1045D0007B018C0182E0D82ACA9461F0CE010E944E
:1045E000DF24AC0197FFDACFD1FC04C015C0EE2464
:1045F000FF248701D7FE08C010950095F094E09441
:10460000E11CF11C011D111DC501B801A7012D2DD3
:104610000E94372281E001C080E0CDB7DEB7EAE03A
:104620000C94EC1FA0E2B0E0E8E1F3E20C94CC1FA4
:104630006C01A62E8A017901FE01319680E2DF012C
:104640001D928A95E9F770E030E060E040E050E0CC
:104650004F01A1E0B0E0F6018381F70183FD2591D0
:1046600083FF21917F01222309F47EC02E3519F4A6
:104670004115510569F1872F90E08417950744F49F
:104680002D3551F12D3221F4332329F431E021C0AD
:10469000332309F4622F322F832F869586958695D2
:1046A000F401E80FF11D832F87703D0102C0660CF5
:1046B000771C8A95E2F7208126292083361711F48A
:1046C00030E007C0361710F43F5FE6CF3150E4CF3B
:1046D00071E04F5F5F4FBFCF332319F08E8180624F
:1046E0008E83772359F0FE0131969E012F5D3F4F57
:1046F000808180958193E217F307D1F7BB24B394AF
:104700004E010894811C911CC6010E94DF24AC015B
:1047100097FD22C0869586958695F401E80FF11DD8
:10472000808190E09A012770307002C0959587953E
:104730002A95E2F780FD05C0CA01B6010E94212535
:104740000BC00115110519F0D8014D938D01AA94E4
:10475000BB24AA20C9F602C0BB2031F40115110503
:1047600029F0F801108202C0EE24FF24C701A096B0
:10477000EEE00C94E81FA0E0B0E0E1ECF3E20C9472
:10478000CC1F5C016B013A01FC0117821682882460
:10479000EAC0812F90E00E94CC24892B21F0C50132
:1047A0000E947122E0C0153249F4F601F3FC6591D4
:1047B000F3FE61916F01653269F415E2C5010E9453
:1047C000DF2497FDDCC0181709F4CDC0B5010E94A5
:1047D0002125DAC06A3219F0162F00E006C0F3FC7A
:1047E0001591F3FE11916F0101E099240FC0026051
:1047F000692D70E080E090E040E20E944322962E16
:10480000F601F3FC1591F3FE11916F01212F205356
:104810002A3068F301FD03C099249A9403C09920BB
:1048200009F4B2C0183621F01C3699F4F6010BC019
:10483000F601F3FC6591F3FE6191683619F06F01A2
:10484000162F07C008600460F3FC1591F3FE119168
:104850006F01112309F498C087EF94E0612F70E095
:104860000E94D424892B09F48FC0802F00FF03C03D
:10487000EE24FF2407C0F301E080F18022E030E065
:10488000620E731E1E3651F4F5014681578160E0B9
:1048900070E0C701202F0E94372265C0133691F4C3
:1048A00081FD02C099249394C5010E94DF2497FDE5
:1048B00066C0E114F10419F0F70181937F019A9425
:1048C00099F74FC01B3559F4C501692DA701960111
:1048D0000E9412236C01009709F043C03DC0C5013E
:1048E0000E94712297FD4BC01F3659F1103728F4F2
:1048F000143629F1193639F527C0133719F0153751
:1049000011F51DC0C5010E94DF24EC0197FD11C007
:104910000E94CC24892B29F0CE01B5010E942125CB
:1049200008C0E114F10419F0F701C1937F019A94D2
:1049300049F7E114F104A9F0F701108212C00062F6
:1049400003C0006101C00064C501692DA701202FCB
:104950000E948A22882329F4F5018381807379F4E7
:1049600013C000FF8394F501F380F601F3FC159169
:10497000F3FE11916F01112309F00BCF05C08820C0
:1049800019F42FEF3FEF02C0282D30E0C901CDB759
:10499000DEB7EEE00C94E81F91116DC0803219F083
:1049A00089508550D0F70895FC010590061621F036
:1049B0000020D9F7C00108953197CF010895CF9312
:1049C000DF93EC014B8140FF1AC046FF0AC04F7BCA
:1049D0004B838E819F8101969F838E838A81282FAE
:1049E0002BC042FF13C0E881F9818081282F332733
:1049F00027FD30952115310529F440624B832FEFB7
:104A00003FEF1BC03196F983E88311C0EA85FB852F
:104A1000CE0109959C0197FF0AC09B812F5F3F4FF4
:104A200011F080E201C080E1892B8B83E8CF8E8179
:104A30009F8101969F838E8330E0C901DF91CF91E2
:104A400008959C01FB01838180FF11C086FD0FC08A
:104A50009FEF2F3F390759F0228380648F7D838336
:104A60008681978101979783868330E002C02FEF7C
:104A70003FEFC9010895992788270895629FD001C3
:104A8000739FF001829FE00DF11D649FE00DF11D09
:104A9000929FF00D839FF00D749FF00D659FF00DB8
:104AA0009927729FB00DE11DF91F639FB00DE11DA5
:104AB000F91FBD01CF011124089597FB092E05268A
:104AC0000ED057FD04D014D00AD0001C38F45095F5
:104AD0004095309521953F4F4F4F5F4F0895F6F722
:104AE00090958095709561957F4F8F4F9F4F08955A
:104AF000A1E21A2EAA1BBB1BFD010DC0AA1FBB1FE2
:104B0000EE1FFF1FA217B307E407F50720F0A21B53
:104B1000B30BE40BF50B661F771F881F991F1A94C0
:104B200069F760957095809590959B01AC01BD01EA
:084B3000CF010895F894FFCFB6
:104B38000D0A0A002564006E3130323237353535BA
:104B48000041737465726F69640041706F63616CD2
:104B580079707365000A4E45572047414D452053EB
:104B68005441525445440A0A0D0053657420616D3E
:104B78006F756E74206F66206C697665733A2000D5
:104B8800536574207468652073636F72653A2000FA
:104B98005365742074686520737461726669676808
:104BA80074657220706F736974696F6E2028362D72
:104BB80037382920696E636C75736976653A200009
:104BC80047414D45204F564552002E2E202020208B
:104BD80020202E2E2E202E202020202E202E2E206B
:104BE800202E20202E20202E2E2020202E2E202069
:104BF800202E2E2E2E2E2E2E2E2E2E2E009A0100F8
:104C0800E100000000082020202E20202020202E57
:104C18002E2E2020202E2E2E2E2E202E2E2E2E2EE4
:104C28002E2E202E2E2E2E2E2020202E2E2E2020F0
:104C38002020202E20202000D60120202E202020D9
:104C48002E2E2E202E2E2E2E2E202E2E2E202020C2
:104C58002E2020000A02202E202E2E2E202E20006C
:104C6800260254696D653A20253032643A2530327F
:104C7800640A0D004C697665733A2025640A0D00B4
:104C880053636F72653A2025640A0D004173746599
:104C9800726F6964733A2025640A0D00426F756C5F
:104CA800646572733A2025640A0D00467261676D67
:104CB800656E74733A2025640A0D00506C61736D3B
:104CC8006120426F6C74733A2025640A0D004169B3
:104CD8006D3A2025640A0D0053706565643A2025F5
:104CE800640A0A0D0054696D653A20253032643A29
:104CF80025303264004C697665733A202564005388
:104D0800636F72653A202564002E2E2E2E00D9027C
:084D180002000200010000008E
:04000005008004B5BE
:00000001FF
